{
  "abi": [
    {
      "inputs": [
        {
          "internalType": "address",
          "name": "",
          "type": "address"
        }
      ],
      "name": "Present_in_class",
      "outputs": [
        {
          "internalType": "bool",
          "name": "",
          "type": "bool"
        }
      ],
      "stateMutability": "view",
      "type": "function"
    },
    {
      "inputs": [],
      "name": "Totalstudent_pre",
      "outputs": [
        {
          "internalType": "uint256",
          "name": "",
          "type": "uint256"
        }
      ],
      "stateMutability": "view",
      "type": "function"
    },
    {
      "inputs": [],
      "name": "todayaatendence",
      "outputs": [],
      "stateMutability": "nonpayable",
      "type": "function"
    },
    {
      "inputs": [],
      "name": "todaystu",
      "outputs": [
        {
          "internalType": "uint256",
          "name": "",
          "type": "uint256"
        }
      ],
      "stateMutability": "view",
      "type": "function"
    },
    {
      "inputs": [
        {
          "internalType": "address",
          "name": "studentID",
          "type": "address"
        }
      ],
      "name": "yesMam",
      "outputs": [],
      "stateMutability": "nonpayable",
      "type": "function"
    }
  ],
  "bytecode": "6080604052600080546001600160a01b03191633178155601460015560025534801561002a57600080fd5b5061022a8061003a6000396000f3fe608060405234801561001057600080fd5b50600436106100575760003560e01c80632e75118b1461005c5780633ef981bf146100945780634f92dcc6146100ab578063d013592d146100c0578063eedab1fc146100c8575b600080fd5b61007f61006a36600461017e565b60046020526000908152604090205460ff1681565b60405190151581526020015b60405180910390f35b61009d60025481565b60405190815260200161008b565b6100be6100b936600461017e565b6100d1565b005b6100be610169565b61009d60035481565b6001600160a01b03811660009081526004602052604090205460ff16156101305760405162461bcd60e51b815260206004820152600f60248201526e185b1c9958591e48185d195b991959608a1b604482015260640160405180910390fd5b6001600160a01b0381166000908152600460205260408120805460ff191660011790556002805491610161836101c4565b919050555050565b60025460015461017991906101dd565b600355565b60006020828403121561019057600080fd5b81356001600160a01b03811681146101a757600080fd5b9392505050565b634e487b7160e01b600052601160045260246000fd5b6000600182016101d6576101d66101ae565b5060010190565b6000828210156101ef576101ef6101ae565b50039056fea26469706673582212200b76bf732afb6b6802c6b73d56b333ff6da6aa2b8fe8f2c0e981f9c9a410018264736f6c634300080e0033",
  "bytecodeSha1": "73303c5b720d1a4b4f613da35d6cfd6345e826e2",
  "compiler": {
    "evm_version": "istanbul",
    "optimizer": {
      "enabled": true,
      "runs": 200
    },
    "version": "0.8.14+commit.80d49f37"
  },
  "contractName": "Attendence",
  "language": "Solidity",
  "natspec": {
    "kind": "dev",
    "methods": {},
    "version": 1
  },
  "opcodes": "PUSH1 0x80 PUSH1 0x40 MSTORE CALLVALUE DUP1 ISZERO PUSH2 0x10 JUMPI PUSH1 0x0 DUP1 REVERT JUMPDEST POP PUSH1 0x4 CALLDATASIZE LT PUSH2 0x57 JUMPI PUSH1 0x0 CALLDATALOAD PUSH1 0xE0 SHR DUP1 PUSH4 0x2E75118B EQ PUSH2 0x5C JUMPI DUP1 PUSH4 0x3EF981BF EQ PUSH2 0x94 JUMPI DUP1 PUSH4 0x4F92DCC6 EQ PUSH2 0xAB JUMPI DUP1 PUSH4 0xD013592D EQ PUSH2 0xC0 JUMPI DUP1 PUSH4 0xEEDAB1FC EQ PUSH2 0xC8 JUMPI JUMPDEST PUSH1 0x0 DUP1 REVERT JUMPDEST PUSH2 0x7F PUSH2 0x6A CALLDATASIZE PUSH1 0x4 PUSH2 0x17E JUMP JUMPDEST PUSH1 0x4 PUSH1 0x20 MSTORE PUSH1 0x0 SWAP1 DUP2 MSTORE PUSH1 0x40 SWAP1 KECCAK256 SLOAD PUSH1 0xFF AND DUP2 JUMP JUMPDEST PUSH1 0x40 MLOAD SWAP1 ISZERO ISZERO DUP2 MSTORE PUSH1 0x20 ADD JUMPDEST PUSH1 0x40 MLOAD DUP1 SWAP2 SUB SWAP1 RETURN JUMPDEST PUSH2 0x9D PUSH1 0x2 SLOAD DUP2 JUMP JUMPDEST PUSH1 0x40 MLOAD SWAP1 DUP2 MSTORE PUSH1 0x20 ADD PUSH2 0x8B JUMP JUMPDEST PUSH2 0xBE PUSH2 0xB9 CALLDATASIZE PUSH1 0x4 PUSH2 0x17E JUMP JUMPDEST PUSH2 0xD1 JUMP JUMPDEST STOP JUMPDEST PUSH2 0xBE PUSH2 0x169 JUMP JUMPDEST PUSH2 0x9D PUSH1 0x3 SLOAD DUP2 JUMP JUMPDEST PUSH1 0x1 PUSH1 0x1 PUSH1 0xA0 SHL SUB DUP2 AND PUSH1 0x0 SWAP1 DUP2 MSTORE PUSH1 0x4 PUSH1 0x20 MSTORE PUSH1 0x40 SWAP1 KECCAK256 SLOAD PUSH1 0xFF AND ISZERO PUSH2 0x130 JUMPI PUSH1 0x40 MLOAD PUSH3 0x461BCD PUSH1 0xE5 SHL DUP2 MSTORE PUSH1 0x20 PUSH1 0x4 DUP3 ADD MSTORE PUSH1 0xF PUSH1 0x24 DUP3 ADD MSTORE PUSH15 0x185B1C9958591E48185D195B991959 PUSH1 0x8A SHL PUSH1 0x44 DUP3 ADD MSTORE PUSH1 0x64 ADD PUSH1 0x40 MLOAD DUP1 SWAP2 SUB SWAP1 REVERT JUMPDEST PUSH1 0x1 PUSH1 0x1 PUSH1 0xA0 SHL SUB DUP2 AND PUSH1 0x0 SWAP1 DUP2 MSTORE PUSH1 0x4 PUSH1 0x20 MSTORE PUSH1 0x40 DUP2 KECCAK256 DUP1 SLOAD PUSH1 0xFF NOT AND PUSH1 0x1 OR SWAP1 SSTORE PUSH1 0x2 DUP1 SLOAD SWAP2 PUSH2 0x161 DUP4 PUSH2 0x1C4 JUMP JUMPDEST SWAP2 SWAP1 POP SSTORE POP POP JUMP JUMPDEST PUSH1 0x2 SLOAD PUSH1 0x1 SLOAD PUSH2 0x179 SWAP2 SWAP1 PUSH2 0x1DD JUMP JUMPDEST PUSH1 0x3 SSTORE JUMP JUMPDEST PUSH1 0x0 PUSH1 0x20 DUP3 DUP5 SUB SLT ISZERO PUSH2 0x190 JUMPI PUSH1 0x0 DUP1 REVERT JUMPDEST DUP2 CALLDATALOAD PUSH1 0x1 PUSH1 0x1 PUSH1 0xA0 SHL SUB DUP2 AND DUP2 EQ PUSH2 0x1A7 JUMPI PUSH1 0x0 DUP1 REVERT JUMPDEST SWAP4 SWAP3 POP POP POP JUMP JUMPDEST PUSH4 0x4E487B71 PUSH1 0xE0 SHL PUSH1 0x0 MSTORE PUSH1 0x11 PUSH1 0x4 MSTORE PUSH1 0x24 PUSH1 0x0 REVERT JUMPDEST PUSH1 0x0 PUSH1 0x1 DUP3 ADD PUSH2 0x1D6 JUMPI PUSH2 0x1D6 PUSH2 0x1AE JUMP JUMPDEST POP PUSH1 0x1 ADD SWAP1 JUMP JUMPDEST PUSH1 0x0 DUP3 DUP3 LT ISZERO PUSH2 0x1EF JUMPI PUSH2 0x1EF PUSH2 0x1AE JUMP JUMPDEST POP SUB SWAP1 JUMP INVALID LOG2 PUSH5 0x6970667358 0x22 SLT KECCAK256 SIGNEXTEND PUSH23 0xBF732AFB6B6802C6B73D56B333FF6DA6AA2B8FE8F2C0E9 DUP2 0xF9 0xC9 LOG4 LT ADD DUP3 PUSH5 0x736F6C6343 STOP ADDMOD 0xE STOP CALLER ",
  "sha1": "0d0cbcd0829879364aba5dbaed310810a50bc88c",
  "source": "// SPDX-License-Identifier: GPL-3.0\npragma solidity >=0.7.0 <0.9.0;\ncontract Attendence {\n  address teacher = msg.sender;\n     uint  Totalstudent = 20;\n   uint public Totalstudent_pre  =0;\nuint public todaystu;\n    mapping(address=>bool) public Present_in_class;\nfunction yesMam(address studentID) public {\n       require(!Present_in_class[studentID],\"already atended\");\n        Present_in_class[studentID] = true;\n        Totalstudent_pre++;\n}\nfunction todayaatendence() public{  \n  todaystu = Totalstudent - Totalstudent_pre;\n}\n    }",
  "sourcePath": "contracts/Attendence.sol",
  "type": "contract"
}